S0030000FC
S1130000B92AFFFF0000000000000000000000000B
S1130010772A00000000000000000000000000003B
S1130020000000000000000000006228B025B22596
S113003000000000000000000000000000000000BC
S11300400000000000000000000000000000E725A0
S11300500000EC258927000000004828BA2600008B
S1130060000000000000000000000000000000008C
S1130070000000000000000000000000000000007C
S10700C06EFFAA859C
S10D00C4000000000000000000002E
S10D00CEFFFFFFFFFFFFFFFFFFFF2E
S11301007100900016BF04088C019F0108E50308E4
S1130110F2FCF8FF0E62CF800804D716E503088CC2
S113012002088C03BF0408340010CF02080F8C06A9
S11301309F81084C03DD2415080E00081E01BF0032
S113014008148C04088C05BF06081251004E06DD05
S11301501BF98108FCF8FF0E62EF20300004BF0693
S1130160088C003129F005BF0008EFE5FB04080006
S1130170899BA7A5B3F643DFF75100D7FC04F00E23
S111018062D7FC08F00E71089000F58008D7D5
S1132000AC26AC26AC26AC26AC26AC26AC26AC263C
S1132010AC26AC26FFFFFFFFFFFFFFFFFFFFFFFF24
S11320203A4D3A4D3A4D3A4D3A4D3A4D3A4D3A4D74
S11320303A4D3A4DFFFFFFFFFFFFFFFFFFFFFFFF9A
S1132040D007D007D007D007D007D007D007D007D4
S1132050D007D007FFFFFFFFFFFFFFFFFFFFFFFFDA
S1132060A00FA00FA00FA00FA00FA00FA00FA00FF4
S1132070A00FA00FFFFFFFFFFFFFFFFFFFFFFFFF0A
S1132080791E0C3D803E007DD7FF0100390202001D
S1132090F401F50AA40BC51EA93D803E007D751C04
S11320A01B400000000000000000000000000000D1
S11320B0000000000000000000000000000000001C
S11320C0000000000000000000000000000000000C
S11320D000000000000000000000000000000000FC
S11320E000000000000000000000000000000000EC
S11320F000000000000000000000000000000000DC
S113210000000000000000000000000000000000CB
S113211000000000000000000000000000000000BB
S113212000000000000000000000000000000000AB
S1132130000000000000000000000000000000009B
S113214000000000010204081020408001024961DF
S1132150A76105626362C0624961A7610562636247
S1132160C0620000000000000000000000070E092B
S11321701C1B1215383F363124232A2D70777E79A3
S11321806C6B6265484F464154535A5DE0E7EEE993
S1132190FCFBF2F5D8DFD6D1C4C3CACD90979E9983
S11321A08C8B8285A8AFA6A1B4B3BABDC7C0C9CE73
S11321B0DBDCD5D2FFF8F1F6E3E4EDEAB7B0B9BE63
S11321C0ABACA5A28F88818693949D9A2720292E53
S11321D03B3C35321F18111603040D0A5750595E43
S11321E04B4C45426F68616673747D7A898E878033
S11321F095929B9CB1B6BFB8ADAAA3A4F9FEF7F023
S1132200E5E2EBECC1C6CFC8DDDAD3D4696E676012
S113221075727B7C51565F584D4A4344191E171002
S113222005020B0C21262F283D3A33344E494047F2
S113223052555C5B7671787F6A6D64633E393037E2
S113224022252C2B0601080F1A1D1413AEA9A0A7D2
S1132250B2B5BCBB9691989F8A8D8483DED9D0D7C2
S1132260C2C5CCCBE6E1E8EFFAFDF4F320060201A7
S113227038EE0F0008FF0000000008FF0000000017
S113228008FF0000000008FF0000000008FF000035
S1132290000008FF0000000008FF00000000030128
S11322A008EF0F0003010AEF0F0003010CEF0F000A
S11322B008FF0000000008FF0000000003010EEF0B
S11322C00F0008FF00000000030110EF0F000301DE
S11322D012EF0F0008FF0000000008FF00000000DC
S11322E008FF0000000003013AEE0F0003013CEE7A
S11322F00F0003013EEE0F0008FF0000000008FF7E
S11323000000000008FF0000000008FF00000000BB
S113231008FF0000000008FF0000000008FF0000A4
S1132320000008FF000000000301AEC4010008FF24
S113233000000000062088C4010008FF000000001F
S113234008FF00000000060440EE0F00030144EE05
S11323500F0008FF0000000008FF0000000008FF55
S11323600000000008FF0000000008FF000000005B
S113237008FF0000000008FF0000000008FF000044
S1132380000008FF0000000008FF00000000030137
S1132390C0EE0F000301C2EE0F000301C4EE0F00F4
S11323A00301C6EE0F000301C8EE0F000301CAEEDD
S11323B00F000301CCEE0F000301CEEE0F0003016A
S11323C0D0EE0F000301D2EE0F0008FF0000000062
S11323D008FF0000000008FF0000000008FF0000E4
S11323E0000008FF0000000008FF0000000008FFD4
S11323F0000000000301E4EE0F0003015EEE0F0095
S113240003015CEE0F00030146EE0F00030148EEEA
S11324100F0003014AEE0F00030118EF0F00030140
S11324201AEF0F0003011CEF0F0003011EEF0F0052
S1132430030120EF0F00030122EF0F0008FF00004B
S1132440000008FF0000000008FF00000000020177
S1132450BBEE0F000201BEEE0F000301B9EE0F0048
S113246008FF0000000008FF0000000008FF000053
S1132470000008FF00000000020160EF0F000201ED
S1132480F8ED0F0008FF0000000002014CEE0F0001
S113249008FF00000000030166C4010002014EEEC3
S11324A00F00020150EE0F0003016C220F00030124
S11324B064EE0F00030166EE0F00030168EE0F00E7
S11324C003016AEE0F0003016CEE0F0003016EEED0
S11324D00F00030170EE0F00030172EE0F00030101
S11324E074EE0F00030176EE0F0008FF00000000F9
S11324F008FF0000000008FF0000000008FF0000C3
S1132500000008FF0000000008FF0000000008FFB2
S1132510000000000301A0EE0F000301A4EE0F0071
S11325200301AEEE0F000301B4EE0F000301B6EE9B
S11325300F00060454EE0F0008FF00000000030122
S113254004EF0F00030106EF0F0008FF0000000076
S113255008FF0000000008FF0000000008FF000062
S1132560000008FF0000000008FF00000000B48421
S1132570FE84A0854D892F865B864D894D894D89C2
S11325804D894D894D894D894D894D8990866E8738
S1132590F58737887488B188DE8800000000000061
S11325A00000000000000000000000000000000027
S11325B061FCC18F28EF3179317A91DF0DA025EFCD
S11325C04025EF1961F8712028EF8F28EF31693128
S11325D07A91DF10A026EF4026EF19DF077130282B
S11325E0EFC061FCC061FCE5B8EE61FCC1C720042A
S11325F08EFA9F12ED717BFA3607FF71A28F1E05CA
S1132600980171A38F12ED9EFA8801318E311E61FB
S1132610C8EDB4268EFA9F12ED717BFA71A2CF1E1B
S113262005FE71A38F12ED9EFA8E3A31230E8E3B76
S11326303159317A91DF05E6B802EF03F6B802A802
S1132640026168DD3D8EFA9F12ED717BFA71A28FF3
S11326505905318E31FD31FE60980071A38F12ED62
S11326609EFA8800D1DF4D712048EE710864EFF5C1
S113267024EF710829EF712B3B712A3A1004C6C06C
S113268061FC8EFA9F12ED717BFA71A28F590531AC
S11326908E31FD31FE60980071A38F12ED9EFA8891
S11326A00091DF10712848EE712A3B712B3A100417
S11326B0C6C061FC1004C6C061FCC1C720048EFA08
S11326C09F12ED717BFA3607FF71A28F1F059800E8
S11326D071A38F12ED9EFA8800318E311EDE7E8E3C
S11326E0FA9F12ED717BFA71A2CF1F05FE71A38FC1
S11326F012ED9EFA8F64EF3179317A91DD0A8F5EA3
S1132700EF3159317A91DF05E6B802EF03F6B802EA
S1132710A8026168DD22A05AEE405AEE0ADF19F5DC
S11327205AEEA05BEE405BEE0CDF09F55BEE714008
S11327305EEFEF0471505EEFA027EF4027EF1E61BC
S1132740F8F527EF8F29EF310310A024EF4024EF91
S11327503CDF07710029EFF524EFA0FBEE88003180
S11327608E31FDDE1E8EFA9F12ED717BFA3607FF65
S113277071A2CF1F05FD71A38F12ED9EFA1004C63E
S1132780C061FC1004C6C061FCC1C7C7C800008E8C
S1132790FA9F12ED717BFA3607FF71A28F1C059820
S11327A00171A38F12ED9EFA8801318E31BDDE20B6
S11327B08EFA9F12ED717BFA71A2CF1C05DF71A313
S11327C08F12ED9EFA8800318E086C010860980023
S11327D08801318E31ADDE238EFA9F12ED717BFAC2
S11327E03607FF71A2CF1C05BF71A38F12ED9EFAAD
S11327F08800318E086C02086098008801318E319F
S1132800CDDE2771285EEF710864EFF524EF7108BF
S113281029EF8EFA9F12ED717BFA3607FF71A2CF72
S11328201C05EF71A38F12ED9EFA8EFA9F12ED71C3
S11328307BFA3607FF71A288009F760571A38F1279
S1132840ED9EFAC6C6C061FCC1C3C5C78EFD708EBD
S1132850FCC1FC2A3600C09EFC609EFDC6C4C2C0FA
S113286061FCC1C3C5C78EFD708EFCC1C736310281
S113287071F300000000008E513179317A91DD311D
S11328808E513169317A91DF1F402AEF04DD064011
S11328902AEF05DF05E6B800EF03F6B800A80061EB
S11328A068DD05E6B800EF03F6B800A8006168DD4E
S11328B005E6B800EF03F6B800A800616861F8ED1A
S11328C03D2A405AEFA5DF2E8F5BEF318E44050081
S11328D0DE24710828EF711828EFF524EF71082918
S11328E0EF712829EFFC047300C6C09EFC609EFDB6
S11328F0C6C4C2C061FCCF5AEFA5F55BEF8F28EFC9
S11329003179317A9161E8EDC82936300271B38F9B
S113291029EF31330E8F29EF3169317A9161F8FC57
S1132920ED7300F52AEF711829EF713829EF71283A
S113293029EF8E513139317A91DD098E51312931A6
S11329407A91DF05E6B800EF03F6B800A8006168E5
S1132950DD0E8E513159317A91DF05E6B800EF036F
S1132960F6B800A8006168DD0B8F3102315305E62B
S1132970B800EF03F6B800A8006168DD14713BE20B
S1132980FC1B7000C6C09EFC609EFDC6C4C2C06134
S1132990FC8E513179317A9161E8ED6A2A36B401BD
S11329A07192CF2BEFFF710828EF716BE0716BE42C
S11329B0F524EF710829EF711828EFC6C09EFC605A
S11329C09EFDC6C4C2C061FCF52AEF8E5131393177
S11329D07A91DD098E513129317A91DF05E6B8000B
S11329E0EF03F6B800A8006168DD0E8E513159314D
S11329F07A91DF05E6B800EF03F6B800A800616835
S1132A00DD0B8F3102315305E6B800EF03F6B80051
S1132A10A8006168DD14713BE2FC1B7000C6C09E17
S1132A20FC609EFDC6C4C2C061FC716BE0716BE4C6
S1132A30C6C09EFC609EFDC6C4C2C061FC8F2AEF66
S1132A405004D60424ED14040200168B9EFCA9162F
S1132A5061FAF524EF710829EF711828EFC6C09EBA
S1132A60FC609EFDC6C4C2C061FCC6C09EFC609EE4
S1132A70FDC6C4C2C061FCC1C736310271F37128FE
S1132A805EEF36B40171928FB0013169317A91DD14
S1132A90F636B2017192F559EEF526EF713828EF4A
S1132AA0711028EF8F5BEF318E44C800DE07A05B06
S1132AB0EFC6C061FCC6C061FCCBF820FEFC02522C
S1132AC000364EED3076EFEF04CC0000A747DFF977
S1132AD03620FE3020FEEF04CC0000A747DFF9418A
S1132AE000323D00EF08B31149C8944810EDF64395
S1132AF0DFF44100320000EF08B311490695482085
S10F2B00FEF643DFF4FC285200F6EFFE62
S1132B0CC116F645DD094900009BA3A7B5EFF3C038
S1132B1CD7C0F6B112D716A8066168616EDFF2133E
S1132B2C0181DDED61F8C0C2F2F6D716A806616822
S1132B3C616EDD17C3880A72A808FC342E00B8082D
S1132B4C13B80AC267318FC1EF3FC0130108616D1E
S1132B5C616C61E8E16108DDB8EC2C2E0060616DFC
S1132B6C616CDDC215FC342E001467318F16EF270F
S1132B7C148807617B5C80C1A8080181DD9891DD14
S1132B8CAA76E1311EB80877C7130181DDBC91DD4B
S1132B9CCC76E1311E127717C62716A8063525C147
S1132BAC880A6132C0DE0B0161FE05C1880A61121C
S1132BBCC0B7C7318C72318D16A80A37CEFB0B0007
S1132BCCC166736572A80C16A80A35318DCEFB0B41
S1132BDC00C166736572A80E16A80C35318DCEFB38
S1132BEC0B00C262356168616F6166C2C0047E000D
S1132BFC317324A144FF0061C8EC2C2E006208310F
S1132C0C1E121561FB0861FB08DE0604010061D885
S1132C1CA314C0616315D744E8FF61D8EE08FF9094
S1132C2C660835E333311E3361FB0861FB08618CA4
S1132C3C61FB61D8718A618C85DFE9EC442E00C09C
S1132C4CF6B112D716A8066168616EDFF21301089B
S1132C5C616D616C61E8E16108DDE4EC2C2E00131C
S1132C6C01D1DD0CA80635B806A80833B808EF2442
S1132C7CC2F2F6D760616D616CDDF515FC342E0083
S1132C8C1467318F57000716EF29148807617B5C92
S1132C9C80C1A8080181DDAC91DDC476E1311EB898
S1132CAC08130181DDA791DDCB6106F161DC77E1CD
S1132CBC311E12C713880AD616A808CEFB01353369
S1132CCC0716C3A80CCEFB010514626116636117C9
S1132CDCC2A808CEFB0133051461D8A7F64361E8FA
S1132CECE161641712C631730715011461FE61D8D2
S1132CFCA717248000317317A144FF0061C8EC2C82
S1132D0C2E0063610108311E336508EC442E004427
S1132D1CE8FF61D8EE59FF3533311E3361FB08618E
S1132D2CFB61D8718A0884DFEF35EFD6FCF72D00F0
S1132D3CECA12E00C0F6B112D714F6C1FBF8FFA813
S1132D4C0661686E086E09DDEB6331750B61590021
S1132D5CF625146131702312AC0831750F615900DA
S1132D6CF6612906BC0661317061290816A806357E
S1132D7CCEFB0B00C494DF0A14F6251461317023C6
S1132D8C1215D7C015D714F6C1FBF8FFA806616855
S1132D9C6E086E09DDED6331750B615900F625146F
S1132DAC6131702312AC0831750CF6612906BC062E
S1132DBC61317061290816A80635CEFB0B00C2924E
S1132DCC17DF07F62514613170271215D733540019
S1132DDC71FC33DE0C14F625146131702312155476
S1132DEC01EC572E005400EC572E0016130155001D
S1132DFC61D8854C9FDE252C7FDC21318C3371FA14
S1132E0C3370511F6128614874677266F0DC066484
S1132E1C2C107413F7C5FCD02E00C4D7F7F675D755
S1132E2C32807FC06163F6D757013308311C61DCF3
S1132E3C973175F8318E33D716311E641C7FDE063C
S1132E4CA7F64761F8A3C0616317D70361C8DD44D3
S1132E5C2333559E440000DF0651106125F13331B4
S1132E6C730A9501311C61D8A13175F6618A4C80C5
S1132E7C618ADC11DF0633718C33DE0983DF0604CF
S1132E8C010061D885618C718C63083561FB087114
S1132E9CF9081215D733317311339561E8DF0A142D
S1132EACF62514613170231215D795DF0A311D03F1
S1132EBCDC05538061F8D7F7F6D72C08618C318E7A
S1132ECC618B618A618C4C08DEF0D1618CDD0B3135
S10E2EDC1E33311E3371F994DFF5D76B
S1132EE72012981060980115B80E13B80C3010ED25
S1132EF7FC000100A80EB802A80CB8048801318EA2
S1132F07B806C80808AEF8040200FC1B01009800C4
S1132F17EF06FC7C01009800880081DDF58800D16C
S1132F27DF3BC80804AEF8040200FC1B010098004C
S1132F37EF06FC7C01009800880081DDF58800D14C
S1132F47DF1BC80806AEF8040200FC1B010098004A
S1132F57EF06FC7C01009800880081DDF5FC820106
S1132F67008800980A1012D7200A3010EDFC0001DF
S1132F7700300200B802C80803AEF8040200FC1BC4
S1132F8701009800EF06FC7C01009800880081DDB1
S1132F97F5FC820100100AD7200A3010EDFC00016D
S1132FA700F6B802C80803AEF8040200FC1B0100CF
S1132FB79800EF06FC7C01009800880081DDF5E6A7
S1132FC7B802C80803AEF8040200FC1B010098000D
S1132FD7EF06FC7C01009800880081DDF5FC820186
S1132FE700100AD7C7980036B40171B2717AE67136
S1132FF77BE2717AEE717AEA300080BF960188002D
S1133007318EBE6636B20171B28EE23175FB717BC9
S1133017E236B40171B2C6D72010B80613B808A8AF
S113302716B80CA814B80AA806B80288089804F6B3
S1133037B80088049EFDA80216A80011610900B80B
S113304700A80204020012609802139803880498E7
S113305704A80C12A80A148804318E43A80261F844
S11330674561D3CEA800B80E1010D7F6C130FFD7EC
S1133077C1F7F6FEA2FF1004BF04EFF6C130FFDB71
S1133087C1F73000D8FE90FF1004BF06EFD7200A1F
S113309798013010EDFC0001008801318EB802C898
S11330A70803AEF8040200FC1B01009800EF06FCBD
S11330B77C01009800880081DDF5FC820100100A7C
S11330C7D77110F0ED717BFAF1FEC2FF717AFAD76E
S11330D77110F0ED717BFAE1FEB3FF717AFAD7FE56
S11330E7090091DF057118F0EDD7D7C73690007145
S11330F782510AFEEEFEFC7C010081DF05C8000058
S1133107EF07FC820100C8000188009801C6D72098
S1133117043690007182510AFEC9FE300010BFF2D6
S1133127EDCFF4ED0FC80100EF0588018198018800
S113313701318E440A00DE178FF4ED9EFD880131BC
S11331478E02F2ED14118981DD05E6B802EF03F66C
S1133157B802A8026168DFD2300014BFF2EDCFF4E1
S1133167ED0FC80000EF038198008800318E440AF0
S113317700DE178FF4ED9EFD8800318E02F2ED1408
S1133187118981DD05E6B802EF03F6B802A80261EA
S113319768880073DFD18801318E14D3DF2A157C48
S11331A780440A80DC10300014BFF2EDCFF4ED0F39
S11331B7F5F6EDEEA300300010BFF2EDCFF4ED0FFE
S11331C788019FF6EDEE9100156168DF29880031CB
S11331D78E440A00DC0F300010BFF2EDCFF4ED0F80
S11331E7F5F6EDEF74300014BFF2EDCFF4ED0F8870
S11331F7009FF6EDEF638800318E128801318E430C
S1133207DE1E300010BFF2EDCFF4ED0F88019FF6FC
S1133217ED8801318E440700DC3F7140F0EDEF3952
S1133227300014BFF2EDCFF4ED0F88004C0ADF171E
S1133237FE9DFEEF03FEA7FE8FF0ED3169317A9113
S1133247DDF3F5F6EDEF1288009FF6ED8800318E79
S113325744070061C87130F0ED36900071831004A3
S1133267D7200698003690007182510AFE75FD8FAB
S1133277F4ED9EFD8FF6ED318E02F2ED1411898186
S1133287DF21717BFA8FF6ED318E02F2EDB8028FF2
S1133297F4ED779804AEF812A8021467E0FE40FC38
S11332A7717AFA36900071831006D7200E8FF0EDED
S11332B73169317A91DF06C80000EEB700FE4FFE90
S11332C78FF6ED318E440A00DC06C80000EEA40038
S11332D73690007182510AFE0AFD8FF6ED5060D6D2
S11332E702F2ED044000B804A804B806C80100EFD0
S11332F71BA804148981DD0A5108FE64FFC8000075
S1133307EF72A804A1B80488018198018801318E5D
S1133317446000DCDCA806440000DD05C8020FEFAA
S113332703C80200B80A880273980CA80A14633207
S113333708EF501CFEA9FB9803D1DF0751A0FE201C
S1133347FFEF055107FE19FF8FF0ED3139317A91FF
S1133357DF09FE7BFD7148F0EDEF118FF0ED314988
S1133367317A91DF07FE59FD7138F0ED369000711F
S113337783C8000188009808100ED72006C801FFEB
S1133387C802FF300014BFF2EDCFF4ED0F8FF4ED58
S11333979EFDEBF2ED11898161E8EE9C003000108F
S11333A7BFF2EDCFF4ED0F8FF4ED9EFDEBF2ED11CF
S11333B78981DD78C80000EF248FF4ED9EFDEBF2E0
S11333C7ED11894CA0DF04880098018800819800DA
S11333D7E602F2EDBFF2ED8FF4ED9FF4ED880031D4
S11333E78E440A00DE128FF4ED9EFDEBF2ED118997
S11333F781DD05E6B804EF03F6B804A8046168DFC5
S1133407B8880181DF0D30FFFFBFF2EDCFF4ED0F78
S11334171006D788015060D6044010BFF2EDF6615C
S1133427D8A1040F00609FF4ED1006D730FFFFBF4B
S1133437F2EDCFF4ED0F1006D7C80000EF248FF498
S1133447ED9EFDEBF2ED11894CA0DF048800980294
S11334578800819800E602F2EDBFF2ED8FF4ED9F4C
S1133467F4ED8800318E440A00DE128FF4ED9EFDE0
S1133477EBF2ED118981DD05E6B804EF03F6B80434
S1133487A8046168DFB8410F11400010FFDF2B88E3
S11334970281DF0D30FFFFBFF2EDCFF4ED0F100611
S11334A7D788025060D6044014BFF2EDF661D8A164
S11334B7040F00609FF4ED1006D7300010BFF2ED43
S11334C7CFF4ED0FC80000EF248FF4ED9EFDEBF26F
S11334D7ED11894CA0DF04880098018800819800C9
S11334E7E602F2EDBFF2ED8FF4ED9FF4ED880031C3
S11334F78E440A00DE128FF4ED9EFDEBF2ED118986
S113350781DD05E6B804EF03F6B804A8046168DFB3
S1133517B8880181E061E8F0880281DF29D0DD0DF8
S113352730FFFFBFF2EDCFF4ED0F1006D78801503F
S113353760D6044010BFF2EDF661D8A1040F006015
S11335479FF4ED1006D7D0DD1988025060D60440E9
S113355714BFF2EDF661D8A1040F00609FF4ED10DB
S113356706D78802318E128801318E43DE1988010D
S11335775060D6044010BFF2EDF661D8A1040F00E5
S1133587609FF4ED1006D788025060D6044014BF3C
S1133597F2EDF661D8A1040F00609FF4ED1006D791
S11335A7C73690007182510AFE39FAFECDFDC80074
S11335B7008FF4ED318E440F00AFF2ED61F844FF54
S11335C7FFDF24EF368FF4ED9EFD8800EBF2ED73F9
S11335D711891808EF8800819800E602F2EDBFF21E
S11335E7ED8FF4ED9FF4ED88004C1CDCD8EF1288C6
S11335F700731908EF00880081980088004C1CDCD0
S1133607EE3690007183C6D78EFA9F12ED717BFA5E
S11336173607FF71A28F60EE9F0C0571A38F12ED21
S11336279EFAD72004C800008EFA9F12ED717BFA28
S11336373607FF71A28F1D05980171A38F12ED9EA6
S1133647FA8801318E311EDE4C710864EF71285EF1
S1133657EFF527EFF524EF710829EF8EFA9F12EDA6
S1133667717BFA71A2CF1D05FE71A38F12ED9EFA2D
S113367771303EEECFE4EE14CF60EE02711864EFC2
S1133687F6BFE8EEBFE6EEFE7EFF8800318E086CDB
S113369701086098008801318E31FDDE717108647C
S11336A7EF71285EEFF527EFF524EF710829EF8E08
S11336B7FA9F12ED717BFA3607FF71A28F6A05989C
S11336C70271A38F12ED9EFA8EFA9F12ED717BFAA7
S11336D771A2CF1D05FD71A38F12ED9EFACFE4EE03
S11336E71371503EEECF60EE02711864EFF6BFE837
S11336F7EEBFE6EEFE11FF8802318EF1085C3C084E
S1133707128800318E616B08616A0860980088012D
S1133717318E31DDDE4E710864EF71285EEFF527D7
S1133727EFF524EF710829EF8EFA9F12ED717BFAFA
S11337373607FF71A2CF1D05F771A38F12ED9EFA0D
S1133747CFE4EE1271403EEEE560EE711864EFF6D9
S1133757BFE8EEBFE6EEFEAFFE8800318E086C08C8
S1133767086098008801318E31CDDE2A710864EF34
S113377771285EEFF527EFF524EF710829EF8EFA2C
S11337879F12ED717BFA3607FF71A2CF1D05EF710A
S1133797A38F12ED9EFA8801318E31BDDE6C8EFA4D
S11337A79F12ED717BFA3607FF71A2CF1D05DF71FA
S11337B7A38F12ED9EFA8EFA9F12ED717BFA71A216
S11337C78F0305980371A38F12ED9EFA8EFA9F1249
S11337D7ED717BFA71A2E5030571A38F12ED9EFAD1
S11337E78EFA9F12ED717BFA71A2E53E0571A38FE4
S11337F712ED9EFA8EFA9F12ED717BFA71A288037D
S11338079F030571A38F12ED9EFA8EFA9F12ED7135
S11338177BFA3607FF71A288009F6B0571A38F128D
S1133827ED9EFA1004D7EC00CC01D7200AB8041394
S1133837B802A804440000DD05C8000FEF03C80060
S113384700B8068800779808A80212A806146750DB
S113385702FCE72E003690007182510AFCEB2F0020
S113386734A200320018304EEDFC0C2B00369000C9
S11338777183100AD7200AB80413B802A8044400B5
S113388700DD05C8000FEF03C80000B806880077FD
S11338979808A80212A80614675004FCE72E0036FD
S11338A790007182510AFCEB2F0034A200320018F9
S11338B7304EEDFC0C2B003690007183100AD72094
S11338C7068FF8ED318E440A00DC7A04F6FF4400D3
S11338D70061F8EE5801B144000061F8EE3502B119
S11338E744000061F8EE1203B144000061F8EE866B
S11338F703B144000061F8EE4304B144000061F8E9
S1133907EE7B04B144000061F8EEB30404F0FF4415
S11339170000DD7EB144090061D8EEBC0004F7FF66
S113392744000061F8EE9506B144000061F8EE7EAC
S113393707B144000061F8EEB70444010061F8EEF2
S11339479505EE50088FF8ED5002D612794EED44E6
S1133957FFFFDF378FF8EDFE1B0AB8008FF8ED5035
S113396702D614AEF81215040018FEBEFE8FF8ED49
S11339775002D612A80014794EED45DF07CFF9EDB2
S1133987081006D7CFF9ED041006D7CFF9ED0410C8
S113399706D74101118FAEC43159317A91DF3AAF5D
S11339A7D8ED44FFFFAFD6ED61F844FFFFDF23FEF8
S11339B767093254EE308818FEBAFEAFD8ED425686
S11339C7EEAFD6ED61F84254EEDD0ECFF9ED0410FB
S11339D706D7CFF9ED041006D78FF8ED5002D604B9
S11339E72EED14A944FFFFDF3E8FF8ED318E04E07E
S11339F7FF60FE8009B8008FF8ED5002D614AEF8C8
S1133A07121504E017FE23FE8FF8ED5002D6042E9C
S1133A17ED14A80012A943DF07CFF9ED081006D764
S1133A27CFF9ED041006D7CFF9ED041006D7AFCEC2
S1133A37ED44FFFF61E8EED4008EFA9F14ED717B2D
S1133A47FA3607FF71A2CF26050371A38F14ED9EE3
S1133A57FA8EFA9F14ED717BFA71A2CF22050371D6
S1133A67A38F14ED9EFA8EFA9F14ED717BFA71A25F
S1133A77E5200571A38F14ED9EFA8EFA9F14ED715C
S1133A877BFA71A2CF21050471A38F14ED9EFA8EE0
S1133A97D03165FB716BD08EFA9F14ED717BFA718F
S1133AA7A2CF1C05FE71A38F14ED9EFA8EFA9F1404
S1133AB7ED717BFA71A28F2C05980471A38F14ED15
S1133AC79EFA8EFA9F14ED717BFA71A28F2D0598D9
S1133AD70371A38F14ED9EFA8804708803B800AEAF
S1133AE7F8A11631F507CFF9ED041006D7AEF81291
S1133AF7308018FE35FDA80012AFCEED43DF07CFA7
S1133B07F9ED081006D7CFF9ED041006D7CFF9ED74
S1133B17041006D7AFD0ED44FFFF61E8EED4008E62
S1133B27FA9F14ED717BFA3607FF71A2CF260503BE
S1133B3771A38F14ED9EFA8EFA9F14ED717BFA71BF
S1133B47A2CF22050371A38F14ED9EFA8EFA9F1458
S1133B57ED717BFA71A2E5200571A38F14ED9EFA2E
S1133B678EFA9F14ED717BFA71A2CF21050471A31C
S1133B778F14ED9EFA8ED03165FB716BD08EFA9F50
S1133B8714ED717BFA71A2CF1C05FE71A38F14ED9E
S1133B979EFA8EFA9F14ED717BFA71A28F2C059809
S1133BA70471A38F14ED9EFA8EFA9F14ED717BFABC
S1133BB771A28F2D05980371A38F14ED9EFA8804C3
S1133BC7708803B800AEF8A11631F507CFF9ED04F4
S1133BD71006D7AEF812308218FE4FFCA80012AFB9
S1133BE7D0ED43DF07CFF9ED081006D7CFF9ED0481
S1133BF71006D7CFF9ED041006D7C80200EF1A88CC
S1133C07025002D612794EED44FFFFDD07CFF9EDDE
S1133C17041006D788028198024101118F66C431C6
S1133C278E128802318E43DCD6C80200EF32880236
S1133C37FE4207B80088025002D614AEF8121504E3
S1133C470018FEE6FB88025002D612A80014794E2B
S1133C57ED45DD07CFF9ED041006D78802819802F8
S1133C674101118F66C4318E128802318E43DCBE46
S1133C77CFF9ED081006D7C80200EF1B88025002DF
S1133C87D6046EED14A944FFFFDD07CFF9ED041048
S1133C9706D788028198024101118F66C4318E12BA
S1133CA78802318E43DCD54101118FAEC4315931BD
S1133CB77A91DF3AAFD8ED44FFFFAFD6ED61F84410
S1133CC7FFFFDF23FE52063254EE308818FEA5FBB1
S1133CD7AFD8ED4256EEAFD6ED61F84254EEDD0EA5
S1133CE7CFF9ED041006D7CFF9ED041006D7C802B3
S1133CF700EF338802FE7D06B80088025002D6140E
S1133D07AEF81215042018FE21FB88025002D604CF
S1133D176EED14A80012A943DD07CFF9ED041006D0
S1133D27D788028198024101118F66C4318E1288A7
S1133D3702318E43DCBDCFF9ED081006D7AFD8EDBD
S1133D4744FFFFAFD6ED61F844FFFFDF2AFEC90544
S1133D573254EE308818FE1CFBAFD8ED4256EEAF56
S1133D67D6ED61F84254EEDF07CFF9ED081006D718
S1133D77CFF9ED041006D7CFF9ED041006D7AFDC61
S1133D87ED44FFFFAFDAED61F844FFFFDF2AFE8859
S1133D97053254EE308C18FEDBFAAFDCED4256EEFA
S1133DA7AFDAED61F84254EEDF07CFF9ED081006FC
S1133DB7D7CFF9ED041006D7CFF9ED041006D7AF26
S1133DC7E0ED44FFFFDF23FCAF69003208EF3092D8
S1133DD718FE57FAAFE0ED4208EFDF07CFF9ED0819
S1133DE71006D7CFF9ED041006D7CFF9ED04100666
S1133DF7D7AFE4ED44FFFF61E8EED4008EFA9F14D9
S1133E07ED717BFA3607FF71A2CF26050971A38FDF
S1133E1714ED9EFA8EFA9F14ED717BFA71A2CF22EC
S1133E27050371A38F14ED9EFA8EFA9F14ED717B2F
S1133E37FA71A2E5200571A38F14ED9EFA8EFA9FFD
S1133E4714ED717BFA71A2CF21050471A38F14EDD0
S1133E579EFA8ED03165FB716BD08EFA9F14ED718B
S1133E677BFA71A2CF1C05FE71A38F14ED9EFA8E07
S1133E77FA9F14ED717BFA71A28F3005980471A330
S1133E878F14ED9EFA8EFA9F14ED717BFA71A28F4F
S1133E973105980371A38F14ED9EFA880470880383
S1133EA7B800AEF8A11631F507CFF9ED041006D71F
S1133EB7AEF812309618FE72F9A80012AFE4ED437B
S1133EC7DF07CFF9ED081006D7CFF9ED041006D7B1
S1133ED7CFF9ED041006D7AFE6ED44FFFF61E8EE36
S1133EE7D4008EFA9F14ED717BFA3607FF71A2CFC7
S1133EF726050971A38F14ED9EFA8EFA9F14ED71AE
S1133F077BFA71A2CF22050371A38F14ED9EFA8E5B
S1133F17FA9F14ED717BFA71A2E5200571A38F1442
S1133F27ED9EFA8EFA9F14ED717BFA71A2CF2105EB
S1133F370471A38F14ED9EFA8ED03165FB716BD09B
S1133F478EFA9F14ED717BFA71A2CF1C05FE71A343
S1133F578F14ED9EFA8EFA9F14ED717BFA71A28F7E
S1133F673005980471A38F14ED9EFA8EFA9F14ED11
S1133F77717BFA71A28F3105980371A38F14ED9E9B
S1133F87FA8804708803B800AEF8A11631F507CF94
S1133F97F9ED041006D7AEF812309818FE8CF8A87D
S1133FA70012AFE6ED43DF07CFF9ED081006D7CFD0
S1133FB7F9ED041006D7CFF9ED041006D7AFECEDF1
S1133FC744FFFF61E8EEE00036F00071D2CF100045
S1133FD7808EFA9F14ED717BFA3607FF71A2CF2802
S1133FE7051171A38F14ED9EFA8EFA9F14ED717B60
S1133FF7FA71A2CF22050371A38F14ED9EFA8EFAEC
S11340079F14ED717BFA71A2E5200571A38F14ED5E
S11340179EFA8EFA9F14ED717BFA71A2CF210506E1
S113402771A38F14ED9EFA8ED03165FB716BD08E20
S1134037FA9F14ED717BFA71A2CF1C05FE71A38F51
S113404714ED9EFA8EFA9F14ED717BFA71A28F32EA
S113405705980471A38F14ED9EFA8EFA9F14ED71DF
S11340677BFA71A28F3305980371A38F14ED9EFA1F
S11340778804708803B800AEF8A11631F506CFF9A5
S1134087ED04EF1CAEF812309E18FE9EF7A800123E
S1134097AFECED43DF06CFF9ED08EF04CFF9ED04FC
S11340A736F00071D31006D7CFF9ED041006D7AF59
S11340B7EEED44FFFF61E8EED4008EFA9F14ED7134
S11340C77BFA3607FF71A2CF28054171A38F14ED40
S11340D79EFA8EFA9F14ED717BFA71A2CF22050323
S11340E771A38F14ED9EFA8EFA9F14ED717BFA710A
S11340F7A2E5200571A38F14ED9EFA8EFA9F14EDA5
S1134107717BFA71A2CF21050671A38F14ED9EFA74
S11341178ED03165FB716BD08EFA9F14ED717BFAEB
S113412771A2CF1C05FE71A38F14ED9EFA8EFA9F20
S113413714ED717BFA71A28F3605980471A38F145D
S1134147ED9EFA8EFA9F14ED717BFA71A28F3705F3
S1134157980371A38F14ED9EFA8804708803B8003E
S1134167AEF8A11631F507CFF9ED041006D7AEF86E
S11341771230A018FEB4F6A80012AFEEED43DF0725
S1134187CFF9ED081006D7CFF9ED041006D7CFF90C
S1134197ED041006D71006D720043690007182511B
S11341A70AFCEB2F0034A200320018304EEDFC0C51
S11341B72B003690007183C80100EF614101118F14
S11341C7AEC431232988015002D612794EED44FF3B
S11341D7FFDF06C80000EE390188015002D6048EBD
S11341E7ED14A944FFFFDF06C80000EE240188018F
S11341F75002D6046EED14A944FFFFDF06C8000081
S1134207EE0F0188015002D604AEED14A944FFFF56
S1134217DF06C80000EEFA00880181980141011108
S11342278F66C4318E128801318E43DC8FAFD8ED8F
S113423744FFFFAFD6ED61F844FFFFDF06C8000077
S1134247EECF00AFDCED44FFFFAFDAED61F844FFDA
S1134257FFDF06C80000EEB900AFDEED44FFFFDF65
S113426706C80000EEAB004101118FAEC431230E26
S1134277AFCEED44FFFFDF06C80000EE9400AFD0D9
S1134287ED44FFFFDF06C80000EE86004101118FF1
S1134297AEC431230DAFD2ED44FFFFDF05C80000E4
S11342A7EF70AFD4ED44FFFFDF05C80000EF6341B3
S11342B701118FAEC431230DAFE4ED44FFFFDF05D9
S11342C7C80000EF4DAFE6ED44FFFFDF05C800006F
S11342D7EF404101118FAEC431230DAFE8ED44FF28
S11342E7FFDF05C80000EF2AAFEAED44FFFFDF0553
S11342F7C80000EF1DAFECED44FFFFDF05C8000069
S1134307EF10AFEEED44FFFFDF05C80000EF03C871
S11343170001880098021004D7F5B8EED5B8EEDD91
S1134327FBF5B8EED5B8EEDDFBF5B8EE8EFA9F14C3
S1134337ED717BFA3607FF71A28F51059F54EE7119
S1134347A38F14ED9EFA8EFA9F14ED717BFA71A276
S11343578F52059F55EE71A38F14ED9EFA8EFA9F27
S113436714ED717BFA71A28F53059F56EE71A38FDB
S113437714ED9EFAD720089800318E440A0061C8CC
S1134387EE13028800318E440500DE638EFA9F1413
S1134397ED717BFA3607FF71A2880073091AED31B4
S11343A78E086C0108609F230571A38F14ED9EFA94
S11343B78EFA9F14ED717BFA71A2CF22050371A3C4
S11343C78F14ED9EFA8EFA9F14ED717BFA71A2E5B4
S11343D7200571A38F14ED9EFA8EFA9F14ED717B5D
S11343E7FA71A2E5210571A38F14ED9EFAEF6F8E82
S11343F7FA9F14ED717BFA3607FF71A28800318E9C
S11344070415ED1489318E086C0108609F24057129
S1134417A38F14ED9EFA8EFA9F14ED717BFA71A2A5
S1134427CF22050371A38F14ED9EFA8EFA9F14ED24
S1134437717BFA71A2E5200571A38F14ED9EFA8EA4
S1134447FA9F14ED717BFA71A2CF21050271A38F34
S113445714ED9EFA8800318E04FBFF6098008ED01D
S11344673165FB716BD08EFA9F14ED717BFA3607B9
S1134477FF71A2CF1C05FE71A38F14ED9EFA88006D
S1134487318E440000DD20B1440000DD49B1440011
S113449700DD72B144000061F8EE97004401006149
S11344A7F8EEBD00EEE6008EFA9F14ED717BFA710B
S11344B7A28F2C05980271A38F14ED9EFA8EFA9F92
S11344C714ED717BFA71A28F2D05980171A38F14D6
S11344D7ED9EFAEEB7008EFA9F14ED717BFA71A286
S11344E78F2E05980271A38F14ED9EFA8EFA9F14EE
S11344F7ED717BFA71A28F2F05980171A38F14EDCB
S11345079EFAEE88008EFA9F14ED717BFA71A28FE2
S11345173005980271A38F14ED9EFA8EFA9F14ED5D
S1134527717BFA71A28F3105980171A38F14ED9EE7
S1134537FAEF5A8EFA9F14ED717BFA71A28F320546
S1134547980271A38F14ED9EFA8EFA9F14ED717B76
S1134557FA71A28F3305980171A38F14ED9EFAEFB8
S11345672C8EFA9F14ED717BFA71A28F3405980291
S113457771A38F14ED9EFA8EFA9F14ED717BFA7175
S1134587A28F3505980171A38F14ED9EFA880270E6
S11345978801B804EF05300080B804A804B80610F1
S11345A708D7F5FAED8FFBED3169317A91DF0AFE11
S11345B70DF37118FBEDF5FAED8F29EF3139317AE7
S11345C79161E8ECD54500717BFAEC00CC018FFBD7
S11345D7ED3159317A91DF077128FBEDFECE008F5B
S11345E7FBED3149317A91DF087138FBEDFE8B041D
S11345F7D7FC277300ECAC45002004C80000EF3457
S113460788005002D612044EED1404400016150417
S1134617600014A961290078FCED88005002D612C5
S1134627044EED1604200014A96129007810EE88C1
S1134637008198004101118F66C4318E12880031C0
S11346478E43DCBCAFDAED22D6EDBF26EEAFDCED50
S113465761D8B122D8EDBF28EEAFE0ED44FFFFDD0E
S11346670DAFE2ED44FFFFDD05E6B802EF03F6B850
S113467702A8026168DD0BAFE2ED22E0EDBF24EE94
S1134687EF04F6BF24EEAFD4ED22D2EDBF2AEEAF8E
S1134697D0ED22CEEDBF2CEEAFEAED22E8EDBF322E
S11346A7EEAFE6ED22E4EDBF34EE1004D72006C8E2
S11346B70200EF6B8802D1DF4E40B8EE01DF488E6F
S11346C7FA9F14ED717BFA3607FF71A28F51059F8C
S11346D754EE71A38F14ED9EFA8EFA9F14ED717B3D
S11346E7FA71A28F52059F55EE71A38F14ED9EFAAE
S11346F78EFA9F14ED717BFA71A28F53059F56EEC4
S113470771A38F14ED9EFA88029805FC7C4300146C
S113471788055002D612157864EE88028198024102
S113472701118F66C4318E128802318E43DC858E67
S1134737FA9F14ED717BFA3607FF71A2CF2705B7ED
S113474771A38F14ED9EFA8EFA9F14ED717BFA71A3
S1134757A2F5220571A38F14ED9EFA8EFA9F14ED2C
S1134767717BFA71A2E5200571A38F14ED9EFA8E71
S1134777FA9F14ED717BFA71A2CF21050571A38FFE
S113478714ED9EFA8ED03165FB716BD08EFA9F14AF
S1134797ED717BFA71A2CF1C05FE71A38F14ED9EF8
S11347A7FA8EFA9F14ED717BFA71A28F2C05980487
S11347B771A38F14ED9EFA8EFA9F14ED717BFA7133
S11347C7A28F2D05980371A38F14ED9EFA88049880
S11347D705F6BFA2EE8805708803BFA0EE8EFA9F88
S11347E714ED717BFA71A28F2E05980471A38F14AF
S11347F7ED9EFA8EFA9F14ED717BFA71A28F2F0545
S1134807980371A38F14ED9EFA88049805F6BFA642
S1134817EE8805708803BFA4EE8EFA9F14ED717BB2
S1134827FA71A2CF26050B71A38F14ED9EFA8EFAA7
S11348379F14ED717BFA71A2F5220571A38F14ED14
S11348479EFA8EFA9F14ED717BFA71A2E520057129
S1134857A38F14ED9EFA8EFA9F14ED717BFA71A261
S1134867CF21050471A38F14ED9EFA8ED03165FB19
S1134877716BD08EFA9F14ED717BFA71A2CF1C0570
S1134887FE71A38F14ED9EFA8EFA9F14ED717BFAD5
S113489771A28F2C05980171A38F14ED9EFA8EFADD
S11348A79F14ED717BFA71A28F2D05980071A38F68
S11348B714ED9EFA8801708800BFAEEE36AFEE3174
S11348C7F504F6BFAEEE8EFA9F14ED717BFA360748
S11348D7FF71A28F3005980171A38F14ED9EFA8E94
S11348E7FA9F14ED717BFA71A28F3105980071A3B9
S11348F78F14ED9EFA8801708800BFB2EE36B3EECE
S113490731F504F6BFB2EE36F00071D2CF10008055
S11349178EFA9F14ED717BFA3607FF71A2CF280533
S11349271171A38F14ED9EFA8EFA9F14ED717BFA21
S113493771A2F5220571A38F14ED9EFA8EFA9F14C6
S1134947ED717BFA71A2E5200571A38F14ED9EFA30
S11349578EFA9F14ED717BFA71A2CF21050671A31C
S11349678F14ED9EFA8ED03165FB716BD08EFA9F52
S113497714ED717BFA71A2CF1C05FE71A38F14EDA0
S11349879EFA8EFA9F14ED717BFA71A28F32059805
S11349970171A38F14ED9EFA8EFA9F14ED717BFAC1
S11349A771A28F3305980071A38F14ED9EFA8801C5
S11349B7708800BFB4EE36B5EE31F504F6BFB4EE39
S11349C736F00071D38EFA9F14ED717BFA3607FF28
S11349D771A2CF28054171A38F14ED9EFA8EFA9F19
S11349E714ED717BFA71A2F5220571A38F14ED9E64
S11349F7FA8EFA9F14ED717BFA71A2E5200571A373
S1134A078F14ED9EFA8EFA9F14ED717BFA71A2CF83
S1134A1721050671A38F14ED9EFA8ED03165FB71C3
S1134A276BD08EFA9F14ED717BFA71A2CF1C05FE31
S1134A3771A38F14ED9EFA8EFA9F14ED717BFA71B0
S1134A47A28F3605980171A38F14ED9EFA8EFA9FF3
S1134A5714ED717BFA71A28F3705980071A38F1437
S1134A67ED9EFA8801708800BFB6EE36B7EE31F5D1
S1134A7707F6BFB6EE1006D71006D72004304EED62
S1134A87B802C80000EF1388005002D612A8020328
S1134A9714790020B9880081980088004CA2DCE7CB
S1134AA71004D7EC00CC01D736B401718234B601B7
S1134AB7A9086C0708B9714AE6714BE2714BEE71AC
S1134AC74BEAF6BF9001C91824F4714BE2714BE627
S1134AD736B2017182D736B401719234B601A9088E
S1134AE76C3008B9715AE6715BE2715BEE715BEA8F
S1134AF7300080BF9201C91AE803715BE2715BE67B
S1134B07D7712307712B27367C0071F2CFB002814E
S1134B17D78EFA9F16ED717BFA3607FF71A2F5035C
S1134B270571A38F16ED9EFA8EFA9F16ED717BFA27
S1134B3771A2CF1D05EF71A38F16ED9EFA8EFA9F12
S1134B4716ED717BFA71A2CF08050771A38F16EDD5
S1134B579EFA8EFA9F16ED717BFA71A2F50E057116
S1134B67A38F16ED9EFA8EFA9F16ED717BFA71A24A
S1134B77F50D0571A38F16ED9EFA8EFA9F16ED714A
S1134B877BFA71A2E5030571A38F16ED9EFA8EFADF
S1134B979F16ED717BFA71A2CF3105F171A38F16C0
S1134BA7ED9EFA8EFA9F16ED717BFA71A2CF42053C
S1134BB7F071A38F16ED9EFA8EFA9F16ED717BFAAC
S1134BC771A2F5030571A38F16ED9EFAFC235D0010
S1134BD7D7C78EFA9F16ED717BFA3607FF71A28F3E
S1134BE71B05980071A38F16ED9EFA8EFA9F16ED9A
S1134BF7717BFA71A28800318EF1085CFE08609F10
S1134C071B0571A38F16ED9EFA8EFA9F16ED717B25
S1134C17FA71A2CF1F05FE71A38F16ED9EFA8EFAC5
S1134C279F16ED717BFA71A2CF78050871A38F16D1
S1134C37ED9EFA8EFA9F16ED717BFA71A2CF790574
S1134C470371A38F16ED9EFA8EFA9F16ED717BFA08
S1134C5771A2CF78050971A38F16ED9EFAC6D78E78
S1134C67FA9F16ED717BFA3607FF71A2CF03058011
S1134C7771A38F16ED9EFA8EFA9F16ED717BFA716A
S1134C87A24101118F60C89F040571A38F16ED9E81
S1134C97FA8EFA9F16ED717BFA71A24101118F61A9
S1134CA7C89F050571A38F16ED9EFA8EFA9F16ED20
S1134CB7717BFA71A24101118F62C89F060571A326
S1134CC78F16ED9EFA8EFA9F16ED717BFA71A2414B
S1134CD701118F63C89F070571A38F16ED9EFA8E86
S1134CE7FA9F16ED717BFA71A24101118F64C89F77
S1134CF7080571A38F16ED9EFA8EFA9F16ED717B48
S1134D07FA71A24101118F65C89F0A0571A38F1615
S1134D17ED9EFA8EFA9F16ED717BFA71A24101118D
S1134D278F66C89F0B0571A38F16ED9EFA8EFA9FA7
S1134D3716ED717BFA71A24101118F67C89F0C05AB
S1134D4771A38F16ED9EFA8EFA9F16ED717BFA7199
S1134D57A24101118F68C89F0D0571A38F16ED9E9F
S1134D67FA8EFA9F16ED717BFA71A24101118F69D0
S1134D77C89F0E0571A38F16ED9EFA8EFA9F16ED46
S1134D87717BFA71A24101118F6AC89F0F0571A344
S1134D978F16ED9EFA8EFA9F16ED717BFA71A2417A
S1134DA701118F6BC89F100571A38F16ED9EFA8EA4
S1134DB7FA9F16ED717BFA71A24101118F6DC89F9D
S1134DC7110571A38F16ED9EFA8EFA9F16ED717B6E
S1134DD7FA71A2F5030571A38F16ED9EFAD78EFA21
S1134DE79F16ED717BFA3607FF71A2F5030571A3D0
S1134DF78F16ED9EFA8EFA9F16ED717BFA71A2CF8C
S1134E070505AA71A38F16ED9EFA8EFA9F16ED710A
S1134E177BFA71A2CF05055571A38F16ED9EFA8E05
S1134E27FA9F16ED717BFA71A2CF0505FF71A38F67
S1134E3716ED9EFA8EFA9F16ED717BFA71A2F505AF
S1134E470571A38F16ED9EFA51C8FCEB2F008EFA5D
S1134E579F16ED717BFA3607FF71A2F5030571A35F
S1134E678F16ED9EFAD72004C80100C800008EFAF9
S1134E779F16ED717BFA3607FF71A2F5030571A33F
S1134E878F16ED9EFA8EFA9F16ED717BFA71A2F5D5
S1134E97610571A38F16ED9EFA8EFA9F16ED717B4D
S1134EA7FA71A2F5650571A38F16ED9EFA8EFA9F26
S1134EB716ED717BFA71A2F5660571A38F16ED9E47
S1134EC7FA8EFA9F16ED717BFA71A2E5030571A3B9
S1134ED78F16ED9EFA8EFA9F16ED717BFA71A2CFAB
S1134EE761058071A38F16ED9EFA8EFA9F16ED71F8
S1134EF77BFA71A2F5030571A38F16ED9EFA8EFA5C
S1134F079F16ED717BFA71A2CF61058071A38F168D
S1134F17ED9EFA51FAFCEB2F008EFA9F16ED717B8A
S1134F27FA3607FF71A2E5030571A38F16ED9EFA02
S1134F378EFA9F16ED717BFA71A28800318E086C88
S1134F478008609F610571A38F16ED9EFA8EFA9F04
S1134F5716ED717BFA71A2F5030571A38F16ED9E09
S1134F67FA51FAFCEB2F0051FAFCEB2F0051C8FC65
S1134F77EB2F008EFA9F16ED717BFA3607FF71A2AD
S1134F878F6A05980171A38F16ED9EFA8801318EF9
S1134F97F1085C02086098028800318E441800DE2C
S1134FA70E88024C02DD0B8800819800EE6AFFC868
S1134FB700188800318EB16098008EFA9F16ED7143
S1134FC77BFA71A2E5030571A38F16ED9EFA8EFA9B
S1134FD79F16ED717BFA71A288009F610571A38FFB
S1134FE716ED9EFA8EFA9F16ED717BFA71A2F50300
S1134FF70571A38F16ED9EFA8EFA9F16ED717BFA53
S113500771A28F6105980171A38F16ED9EFA8EFA2E
S11350179F16ED717BFA71A288019F610571A38FB9
S113502716ED9EFA8EFA9F16ED717BFA71A2CF6B7D
S1135037050271A38F16ED9EFA1004D72004C80148
S113504700C800188EFA9F16ED717BFA3607FF71B8
S1135057A2F5030571A38F16ED9EFA8EFA9F16ED3E
S1135067717BFA71A2F5630571A38F16ED9EFA8E13
S1135077FA9F16ED717BFA71A2CF69050271A38FAE
S113508716ED9EFA8EFA9F16ED717BFA71A2E5036F
S11350970571A38F16ED9EFA8EFA9F16ED717BFAB2
S11350A771A28800318E086C8008609F630571A324
S11350B78F16ED9EFA8EFA9F16ED717BFA71A2F5A3
S11350C7030571A38F16ED9EFA8EFA9F16ED717B79
S11350D7FA71A2CF63058071A38F16ED9EFA51FA78
S11350E7FCEB2F008EFA9F16ED717BFA3607FF71E2
S11350F7A2E5030571A38F16ED9EFA8EFA9F16EDAE
S1135107717BFA71A28800318E086C8008609F63F6
S11351170571A38F16ED9EFA8EFA9F16ED717BFA31
S113512771A2F5030571A38F16ED9EFA51C8FCEB26
S11351372F008EFA9F16ED717BFA3607FF71A28F47
S11351476A05980171A38F16ED9EFA8801318EF1D5
S1135157085C08086098028800318E440100DC0E60
S113516788024C08DD0B8800919800EE76FFC80092
S1135177008800318EA16098008EFA9F16ED717B2E
S1135187FA71A2E5030571A38F16ED9EFA8EFA9FB5
S113519716ED717BFA71A288009F630571A38F16C0
S11351A7ED9EFA8EFA9F16ED717BFA71A2F503054F
S11351B771A38F16ED9EFA8EFA9F16ED717BFA7125
S11351C7A28F6305980171A38F16ED9EFA8EFA9F3D
S11351D716ED717BFA71A288019F630571A38F167F
S11351E7ED9EFA8EFA9F16ED717BFA71A2CF6B05CD
S11351F70871A38F16ED9EFA1004D7717BFACF7747
S11352070002CE21B8CE22FCCE26F3CEA00036F083
S1135217007182FE92F8FEBDF8FC587300FEE1F8B7
S1135227D72004C80000717BFACF5AEFA5FCE079B8
S113523700D161E8EC5B5200CFE4EE99717AFA8F02
S113524729EF3139317A91DFF6717BFAEC00CC0121
S1135257EC465200FC664C00FC184B00FCD84B0093
S11352674101118FAEC43139317A91DF558EFA9FDE
S113527716ED717BFA3607FF71A2E5030571A38F5B
S113528716ED9EFA8EFA9F16ED717BFA71A2CF186E
S1135297051171A38F16ED9EFA8EFA9F16ED717B99
S11352A7FA71A2F5030571A38F16ED9EFA8EFA9F84
S11352B716ED717BFA71A2CF1E05FE71A38F16ED51
S11352C79EFAFC6D4E00FC4350008EFA9F16ED715A
S11352D77BFA3607FF71A2F5200571A38F16ED9EA1
S11352E7FA8EFA9F16ED717BFA71A2F5500571A338
S11352F78F16ED9EFA4101118FE6C4310303EECBFD
S1135307018EFA9F16ED717BFA71A24101118FE8A4
S1135317C49F640571A38F16ED9EFA8EFA9F16ED4E
S1135327717BFA71A24101118FE7C49F600571A3D4
S11353378F16ED9EFA8EFA9F16ED717BFA71A241D4
S113534701118FEDC49F650571A38F16ED9EFA8E2B
S1135357FA9F16ED717BFA71A24101118FEEC49F7A
S1135367660571A38F16ED9EFA8EFA9F16ED717B73
S1135377FA71A24101118FE9C49F610571A38F16C8
S1135387ED9EFA8EFA9F16ED717BFA71A241011117
S11353978FEFC49F670571A38F16ED9EFA8EFA9F50
S11353A716ED717BFA71A24101118FF0C49F680554
S11353B771A38F16ED9EFA8EFA9F16ED717BFA7123
S11353C7A24101118FEAC49F620571A38F16ED9E56
S11353D7FA8EFA9F16ED717BFA71A2E5030571A3A4
S11353E78F16ED9EFA8EFA9F16ED717BFA71A24124
S11353F701118FF1C49F660571A38F16ED9EFA8E76
S1135407FA9F16ED717BFA71A24101118FF2C49FC5
S1135417670571A38F16ED9EFA8EFA9F16ED717BC1
S1135427FA71A24101118FEBC49F640571A38F1612
S1135437ED9EFA8EFA9F16ED717BFA71A241011166
S11354478FF3C49F680571A38F16ED9EFA8EFA9F9A
S113545716ED717BFA71A24101118FF4C49F69059E
S113546771A38F16ED9EFA8EFA9F16ED717BFA7172
S1135477A24101118FECC49F650571A38F16ED9EA0
S1135487FA8EFA9F16ED717BFA71A2F5030571A3E3
S11354978F16ED9EFA8EFA9F16ED717BFA71A24173
S11354A701118FF6C49F690571A38F16ED9EFA8EBD
S11354B7FA9F16ED717BFA71A24101118FF5C49F12
S11354C7630571A38F16ED9EFAEE92008EFA9F166E
S11354D7ED717BFA71A2CF64050571A38F16ED9E5A
S11354E7FA8EFA9F16ED717BFA71A2CF6005CA7125
S11354F7A38F16ED9EFA8EFA9F16ED717BFA71A2B1
S1135507CF65056471A38F16ED9EFA8EFA9F16ED8B
S1135517717BFA71A2F5660571A38F16ED9EFA8E5B
S1135527FA9F16ED717BFA71A2CF6105E271A38F21
S113553716ED9EFA8EFA9F16ED717BFA71A2CF696A
S113554705FF71A38F16ED9EFA8EFA9F16ED717BF8
S1135557FA71A2CF6305DC71A38F16ED9EFA8EFA5A
S11355679F16ED717BFA3607FF71A2CF1C05E87110
S1135577A38F16ED9EFA8EFA9F16ED717BFA71A230
S1135587CF1D05E471A38F16ED9EFA8EFA9F16EDD3
S1135597717BFA71A2CF1F05FE71A38F16ED9EFAD8
S11355A78EFA9F16ED717BFA71A2CF18051371A3BA
S11355B78F16ED9EFA8EFA9F16ED717BFA71A2CFC4
S11355C719051B71A38F16ED9EFA4101118FAEC405
S11355D73139317A91DF148EFA9F16ED717BFA71A6
S11355E7A2E51A0571A38F16ED9EFA8EFA9F16EDA2
S11355F7717BFA3607FF71A2E51B0571A38F16EDC0
S11356079EFA8EFA9F16ED717BFA71A2F54C05711D
S1135617A38F16ED9EFA8EFA9F16ED717BFA71A28F
S1135627F54D0571A38F16ED9EFA715B3A715A3BDE
S1135637714BD9714BDD714BD1714BD5714B3A71AC
S11356474A3B713BD9713BDD713BD1713BD5713B12
S11356573A713A3B710BD9710BDD710BD1710BD5D3
S1135667712B3A712A3B717BD8717BDC717BD041FA
S113567701118FAEC43139317A91DF05717BD4EFD3
S113568703717AD4711B3A711A3B716AD8716ADC57
S1135697716BD0716AD4710B3A710A3B715BD87123
S11356A75BDC715BD0715BD48EFA9F16ED717BFA6C
S11356B771A2CF0C050371A38F16ED9EFA8EFA9F84
S11356C716ED717BFA71A2CF5005C071A38F16ED49
S11356D79EFA717AFAFC9F4100D1DF2A7100FBED33
S11356E7717BFACFE4EE208EFA9F16ED717BFA36C2
S11356F707FF71A2CF0C050371A38F16ED9EFA71F4
S11357077AFAFCA94500FC0046004101118FAEC49A
S11357173139317A91DF238EFA9F16ED717BFA3690
S113572707FF71A28F5905318E31FD31FE609FEA63
S1135737EE71A38F16ED9EFAEF03F5EAEE40EAEE5B
S113574701DF08712B3A712A3BEF0A712B3A712A50
S11357573B712048EE4101118FAEC46101317A914A
S113576761F8FCC58F004101118FAEC43129317A2C
S11357779161F8FC3E8E004101118FAEC4317A91DC
S113578761F8FCA73500AF12EF6168DF52410111E0
S1135797AFB2C4BF12EF4101118FAEC43149317AA0
S11357A791DF06FCDF8000EF364101118FB0C43171
S11357B78E12AF12EFCEFB01C3C4329000CEFB01B1
S11357C7BF14EFC3C615329000CEFB0207BF16EF16
S11357D74101118FB0C4318EBF0EEFFCB37E00AF11
S11357E710EFBFFEEEE5E4EE410111AFF8C4BF18B8
S11357F7EFFC723000ECC95900FC895F00F5B8EE84
S1135807FC677F00FC6B7E00FC8F8C00FC778400B8
S1135817FC8183004101118FAFC43179317A9161E1
S1135827F8FCFE81004101118FAEC43169317A91D0
S113583761F8FCFD6D008F310231530B8F3102315A
S11358474305E6B802EF03F6B802A8026168DD1B58
S11358578800D1DF1CA059EE8F59EE318E440A001F
S1135867DC0FC80001FC047300EF06F559EEC8000D
S1135877008FF0ED3169317A91DF08FCE63000ECF6
S11358878359008FF0ED3179317A91DF23FCB232FD
S113589700D161F8EC8359007108F0EDEF04FCE6E0
S11358A730008FF0ED3169317A91DDF2EC835900E4
S11358B78F29EF3139317A9161E8ECCC5800717B4B
S11358C7FAEC00CC018F5EEF3159317A91DF2ACFA0
S11358D7E4EE09E560EE8EFA9F16ED717BFA360762
S11358E7FF71A28F60EE9F0C0571A38F16ED9EFAD0
S11358F78FB001311303FED7008F64EF3179317A0A
S113590791DF0B8FB001311314FEC400EF0FF55A6A
S1135917EEF55BEE40E4EE0961F8E5E4EE8F5EEF49
S11359276101317A91DF26F560EE8EFA9F16ED71EB
S11359377BFA3607FF71A28F60EE9F0C0571A38F68
S113594716ED9EFA8FB001311303FE41048F5EEF0B
S1135957317A91DF27CF60EE038EFA9F16ED717BC4
S1135967FA3607FF71A28F60EE9F0C0571A38F169D
S1135977ED9EFA8FB001311303FE1204717BFA8F87
S1135987B00131133A8E51318EF1085CB208616867
S1135997DF2D36310271F236B401718200000071D5
S11359A77AFA61FD000000000036310271F336B265
S11359B70171828FB001311306716BE0716BE47171
S11359C77AFA40B8EE0161F8EC005800EC78580018
S11359D7C78EFA9F16ED717BFA3607FF71A2F55051
S11359E70571A38F16ED9EFAFEBD024101118FAE1C
S11359F7C43129317A91DD0D4101118FAEC46101A2
S1135A07317A91DF05E6B800EF03F6B800A8006124
S1135A1768DD42717BFA8EFA9F16ED717BFA3607C1
S1135A27FF71A2E5030571A38F16ED9EFA8EFA9F07
S1135A3716ED717BFA71A2E5300571A38F16ED9E01
S1135A47FA8EFA9F16ED717BFA71A2F5030571A31D
S1135A578F16ED9EFA717AFA8F64EF310503EEB073
S1135A67008F5EEF312503EEA70040E4EE0961F8ED
S1135A77E5E4EE717BFAFEA3024101118FAEC43156
S1135A8729317A91DD0D4101118FAEC46101317A5B
S1135A9791DF05E6B800EF03F6B800A8006168DDFA
S1135AA7538EFA9F16ED717BFA3607FF71A2E50351
S1135AB70571A38F16ED9EFA8EFA9F16ED717BFA88
S1135AC771A2F5300571A38F16ED9EFA8EFA9F1613
S1135AD7ED717BFA71A2E53E0571A38F16ED9EFA6F
S1135AE78EFA9F16ED717BFA71A2F5030571A38FE8
S1135AF716ED9EFA8EFA9F16ED717BFA3607FF7143
S1135B07A2CF5005C071A38F16ED9EFA717AFAC61B
S1135B17D78F5EEF3139317A91DF5871485EEFFEE6
S1135B27FA01FC895F00FE7F01410111AF10C442F5
S1135B37D4EE61D33E71285EEF710864EFF527EF69
S1135B47F524EF710829EF40E4EE0961F8E5E4EE86
S1135B57717BFAFEC6018EFA9F16ED717BFA360742
S1135B67FF71A2CF5005C071A38F16ED9EFA717A0B
S1135B77FAC6D78F5EEF3129317A9161E8EEEE00EC
S1135B8771585EEFFE95018EFA9F16ED717BFA361A
S1135B9707FF71A2CF5005C071A38F16ED9EFAD5EA
S1135BA7B8EEDDFBF5B8EED5B8EEDDFBF5B8EE8E55
S1135BB7FA9F16ED717BFA71A28F51059F54EE710E
S1135BC7A38F16ED9EFA8EFA9F16ED717BFA71A2DA
S1135BD78F52059F55EE71A38F16ED9EFA8EFA9F8D
S1135BE716ED717BFA71A28F53059F56EE71A38F41
S1135BF716ED9EFA8EFA9F16ED717BFA71A2F55097
S1135C070571A38F16ED9EFAFE9D00FC376C00AF5D
S1135C17E2EE440000AFE0EE61F844FA00DC3E71C6
S1135C27285EEF710864EFF527EFF524EF71082973
S1135C37EF40E4EE0961F8E5E4EE717BFAFEDC007F
S1135C478EFA9F16ED717BFA3607FF71A2CF5005C6
S1135C57C071A38F16ED9EFA717AFAC6D741011166
S1135C678FAEC43169317A9161F8FCFD6D00717BA7
S1135C77FA8FB00131132B8E51318EF1085CB208C3
S1135C876168DF1E36310271F2000000717AFA6131
S1135C97FD00000000008FB001311306716BE07145
S1135CA76BE4717AFAEEB0FDC7717BFA8EFA9F1630
S1135CB7ED717BFA3607FF71A2F5030571A38F1601
S1135CC7ED9EFA8EFA9F16ED717BFA71A2CF070546
S1135CD76371A38F16ED9EFA8EFA9F16ED717BFA08
S1135CE771A2E5060571A38F16ED9EFA8EFA9F162B
S1135CF7ED717BFA3607FF71A28F0605980071A331
S1135D078F16ED9EFA8800318EF1085C10086098B2
S1135D170088004C10DFD5717AFAC6D7C7717BFAB1
S1135D278EFA9F16ED717BFA3607FF71A2F503050C
S1135D3771A38F16ED9EFA8EFA9F16ED717BFA7199
S1135D47A2F5070571A38F16ED9EFA8EFA9F16ED3D
S1135D57717BFA71A2F5060571A38F16ED9EFA8E73
S1135D67FA9F16ED717BFA3607FF71A28F06059825
S1135D770071A38F16ED9EFA8800318EF1085C102E
S1135D87086098008800D1DFD6717AFAC6D78EFAF0
S1135D979F16ED717BFA3607FF71A2F5500571A3C3
S1135DA78F16ED9EFAFE00FF717AFA717BFA8FB0B7
S1135DB70131131F8E51318EF1085CB2086168DF1F
S1135DC71236310271F2000000717AFA61FD0000A7
S1135DD7000000717AFAEFD3200AB804AFD0ED447B
S1135DE7FFFF61F8EE8E004101118FAEC471ACF66E
S1135DF7B808A80414DC37F6C1AF2CEEC1DB2AEED1
S1135E0713B80A1522CEEDCEFB0114C3C6A80A1295
S1135E17A80C61D8B1CEFB02071215FC452D000270
S1135E27D2EDB80461D8A313B8061004EF28F6C15D
S1135E37AFD0EDC1DBD4ED13B80A15CEFB0114C303
S1135E47C6A80A12F6CEFB02071215FC452D00B8A8
S1135E570413B8061004A8027C80440080A80061DB
S1135E67F8440100DC08A800BF5CEE100AD7F6BFAF
S1135E775CEE100AD7F6BF5CEE100AD7200AB80406
S1135E87AFE6ED44FFFF61F8EE8E004101118FAEDE
S1135E97C471ACF6B808A80414DC37F6C1AF34EE05
S1135EA7C1DB32EE13B80A1522E4EDCEFB0114C3AD
S1135EB7C6A80A12A80C61D8B1CEFB02071215FCBA
S1135EC7452D0002E8EDB80461D8A313B806100401
S1135ED7EF28F6C1AFE6EDC1DBEAED13B80A15CE3C
S1135EE7FB0114C3C6A80A12F6CEFB02071215FC5F
S1135EF7452D00B80413B8061004A8027C8044009A
S1135F0780A80061F8440100DC08A800BF5EEE1019
S1135F170AD7F6BF5EEE100AD7F6BF5EEE100AD7B1
S1135F272004B802222EEE32E803CEFB013600002D
S1135F37345813CEFB0B00B800A8001244E502DE68
S1135F472030E40223326400CEFB02349D00CEFBF2
S1135F570300320A00CEFB0204A40BBF44EE100474
S1135F67D7326400CEFB0204F0DE349D00CEFB037F
S1135F7700320A00CEFB021230A40B23BF44EE10FA
S1135F8704D7200CF6B80AC80800C80700C80000E0
S1135F97EF2B8800980973091AED318E128809319D
S1135FA78E440500DE0A8808318E03609808EF08DE
S1135FB78807318E03609807880081980041011192
S1135FC78F66C4318E128800318E43DCC5C8000049
S1135FD7EEA9038800D161E8EECE008EFA9F18ED92
S1135FE7717BFA3607FF71A28808318E086C0108A5
S1135FF7609F230571A38F18ED9EFA8EFA9F18ED03
S1136007717BFA71A2F5220571A38F18ED9EFA8EA2
S1136017FA9F18ED717BFA71A2E5200571A38F1819
S1136027ED9EFA8EFA9F18ED717BFA71A2CF2105C6
S11360378171A38F18ED9EFA40B8EE01DF488EFAFE
S11360479F18ED717BFA71A28F51059F54EE71A3CE
S11360578F18ED9EFA8EFA9F18ED717BFA71A28F55
S113606752059F55EE71A38F18ED9EFA8EFA9F186D
S1136077ED717BFA71A28F53059F56EE71A38F18AA
S1136087ED9EFAFEAA0B8ED03165FB716BD08EFAAA
S11360979F18ED717BFA3607FF71A2CF1C05FE71BD
S11360A7A38F18ED9EFAEE800088004C05DF7A8EE8
S11360B7FA9F18ED717BFA3607FF71A28807318EB4
S11360C7086C0108609F240571A38F18ED9EFA8E52
S11360D7FA9F18ED717BFA71A2F5220571A38F1847
S11360E7ED9EFA8EFA9F18ED717BFA71A2E52005F1
S11360F771A38F18ED9EFA8EFA9F18ED717BFA71D2
S1136107A2CF21058271A38F18ED9EFA8ED0316537
S1136117FB716BD08EFA9F18ED717BFA71A2CF1CBD
S113612705FE71A38F18ED9EFA8800318E440A008C
S113613761C8EEDF0112496221311C9EFC794E21B0
S113614761CB8EFA9F18ED717BFA3607FF71A28F28
S11361572C05980271A38F18ED9EFA8EFA9F18EDFD
S1136167717BFA71A28F2D05980171A38F18ED9E8B
S1136177FA8EFA9F18ED717BFA71A28F3C05980588
S113618771A38F18ED9EFA8EFA9F18ED717BFA7141
S1136197A28F3D05980471A38F18ED9EFAEE740142
S11361A78EFA9F18ED717BFA3607FF71A28F2E05C1
S11361B7980271A38F18ED9EFA8EFA9F18ED717BE2
S11361C7FA71A28F2F05980171A38F18ED9EFA8E8D
S11361D7FA9F18ED717BFA71A28F3E05980571A39A
S11361E78F18ED9EFA8EFA9F18ED717BFA71A28FC4
S11361F73F05980471A38F18ED9EFAEE16018EFAE7
S11362079F18ED717BFA3607FF71A28F300598024C
S113621771A38F18ED9EFA8EFA9F18ED717BFA71B0
S1136227A28F3105980171A38F18ED9EFA8EFA9FFC
S113623718ED717BFA71A28F4005980571A38F1829
S1136247ED9EFA8EFA9F18ED717BFA71A28F4105C4
S1136257980471A38F18ED9EFAEEB8008EFA9F1872
S1136267ED717BFA3607FF71A28F3205980271A38D
S11362778F18ED9EFA8EFA9F18ED717BFA71A28F33
S11362873305980171A38F18ED9EFA8EFA9F18EDC6
S1136297717BFA71A28F4205980571A38F18ED9E41
S11362A7FA8EFA9F18ED717BFA71A28F4305980451
S11362B771A38F18ED9EFAEF5B8EFA9F18ED717B31
S11362C7FA3607FF71A28F3405980271A38F18ED70
S11362D79EFA8EFA9F18ED717BFA71A28F35059895
S11362E70171A38F18ED9EFA8EFA9F18ED717BFA50
S11362F771A28F4405980571A38F18ED9EFA8EFA43
S11363079F18ED717BFA71A28F4505980471A38FCD
S113631718ED9EFA8802980988005002D612880957
S11363277088017864EE8805980988005002D612AF
S11363378809708804788CEE88005002D6120465A8
S1136347EE16130478EE1431F504F6B9EF0A880053
S11363575002D6127964EEB98800755002D61279C4
S113636778EE1265FEAE0788005002D604C0EE161A
S1136377A80A610900B80A88008198004101118FB1
S113638766C4318E128800318E4361D8EE44FCA86E
S11363970ABF0AEFC80300F5D8EEC80600EF3F8F1F
S11363A7D8EE5002D604C0EE168803755002D612F2
S11363B779C0EE614900DE06659FD8EEEF1B8806BB
S11363C75002D604C0EE16655002D61279C0EE61AB
S11363D7490061D30488039806880381980341011F
S11363E7118F66C4318E128803318E43DCB18FD886
S11363F7EE5002D61279C0EEBFD4EE88065002D60C
S11364071279C0EEBFD6EEFE9E058EFA9F18ED7187
S11364177BFA3607FF71A2CF26050B71A38F18ED00
S11364279EFA8EFA9F18ED717BFA71A2F522057117
S1136437A38F18ED9EFA8EFA9F18ED717BFA71A25D
S1136447E5200571A38F18ED9EFA8EFA9F18ED715A
S11364577BFA71A2CF21050471A38F18ED9EFA8EE2
S1136467D03165FB716BD08EFA9F18ED717BFA7191
S1136477A2CF1C05FE71A38F18ED9EFA8EFA9F1802
S1136487ED717BFA71A28F2C05980271A38F18ED19
S11364979EFA8EFA9F18ED717BFA71A28F2D0598DB
S11364A70171A38F18ED9EFA8802708801BFAEEEC2
S11364B736AFEE31F504F6BFAEEEAFAEEEFE18F929
S11364C78EFA9F18ED717BFA3607FF71A28F30059C
S11364D7980271A38F18ED9EFA8EFA9F18ED717BBF
S11364E7FA71A28F3105980171A38F18ED9EFA886E
S11364F702708801BFB2EE36B3EE31F504F6BFB2CF
S1136507EEAFB2EEFE75F936F00071D2CF1000800F
S11365178EFA9F18ED717BFA3607FF71A2CF280513
S11365273171A38F18ED9EFA8EFA9F18ED717BFADD
S113653771A2F5220571A38F18ED9EFA8EFA9F18A2
S1136547ED717BFA71A2E5200571A38F18ED9EFA10
S11365578EFA9F18ED717BFA71A2CF21050671A3FC
S11365678F18ED9EFA8ED03165FB716BD08EFA9F32
S113657718ED717BFA71A2CF1C05FE71A38F18ED7C
S11365879EFA8EFA9F18ED717BFA71A28F320598E5
S11365970271A38F18ED9EFA8EFA9F18ED717BFA9C
S11365A771A28F3305980171A38F18ED9EFA8802A3
S11365B7708801BFB4EE36B5EE31F504F6BFB4EE1C
S11365C736F00071D38EFA9F18ED717BFA3607FF08
S11365D771A28F3405980271A38F18ED9EFA8EFA73
S11365E79F18ED717BFA71A28F3505980171A38FFE
S11365F718ED9EFA8802708801BFB0EE36B1EE310D
S1136607F504F6BFB0EEAFB0EEFE14F98EFA9F189C
S1136617ED717BFA3607FF71A2CF28054171A38F6D
S113662718ED9EFA8EFA9F18ED717BFA71A2F52286
S11366370571A38F18ED9EFA8EFA9F18ED717BFAF8
S113664771A2E5200571A38F18ED9EFA8EFA9F18A3
S1136657ED717BFA71A2CF21050671A38F18ED9E08
S1136667FA8ED03165FB716BD08EFA9F18ED717B72
S1136677FA71A2CF1C05FE71A38F18ED9EFA8EFA4C
S11366879F18ED717BFA71A28F3605980271A38F5B
S113669718ED9EFA8EFA9F18ED717BFA71A28F3767
S11366A705980171A38F18ED9EFA8802708801BFBF
S11366B7B6EE36B7EE31F507F6BFB6EE100CD710C7
S11366C70CD72016410111AF40C8B814F642A2EE08
S11366D7AFAAEE61F842A0EE61E3EE5501EBA2EE3C
S11366E715B810DBA0EEAFAAEE23B812F661D8B145
S11366F7251613222EEE12A81414CEFB01B80E137E
S1136707B802A81061D8B11215CEFB0212A8121450
S1136717A802330312A80ECEFB0B00B80613B80861
S1136727C80000EF0588008198008800318E440670
S113673700DE3088005002D60428C441011411A990
S1136747320A00CEFB01B802C3C6A8087C8012A88F
S11367570614177C8043A80261F84561D305E6B89F
S113676704EF03F6B804A8046168DFB9880050028F
S1136777D60400C4B80212042600144101130428E5
S1136787001611A9121161290014F661D8B1C1C507
S113679713320A00CEFB011413B812A80CB814A8BC
S11367A70A121523321400CEFB0114C3C6A814120F
S11367B7A81261D8B123321400CEFB02071215FCCC
S11367C7452D00144101A806043600161511610968
S11367D7001661D8A313B806AF24EE1231FF1417BD
S11367E703B80EA80661D8A105B8101004A80C3187
S11367F7FE60D1DD06F6BF08EFEF05A80ABF08EF74
S1136807AF08EF44AB05DE07CFDEEE801016D7AF37
S113681708EF44A00FDC07CFDEEE7F1016D7AF08D2
S1136827EF340A00CEFB030004EFFE609FDEEE1098
S113683716D71016D72016410111AF42C8B814F65F
S113684742A6EEAFACEE61F842A4EE61E3EE550169
S1136857EBA6EE15B810DBA4EEAFACEE23B812F638
S113686761D8B1251613222EEE12A81414CEFB01FB
S1136877B80E13B802A81061D8B11215CEFB0212D4
S1136887A81214A802330312A80ECEFB0B00B806F5
S113689713B808C80000EF05880081980088003104
S11368A78E440600DE3088005002D60448C44101F5
S11368B71411A9320A00CEFB01B802C3C6A8087C8A
S11368C78012A80614177C8043A80261F84561D397
S11368D705E6B804EF03F6B804A8046168DFB988CD
S11368E7005002D60400C4B8021204460014410141
S11368F7130448001611A9121161290014F661D86E
S1136907B1C1C513320A00CEFB011413B812A80C87
S1136917B814A80A121523321400CEFB0114C3C6F7
S1136927A81412A81261D8B123321400CEFB0207AF
S11369371215FC452D00144101A80604560016152E
S1136947116109001661D8A313B806AF24EE1231FA
S1136957FF141703B80EA80661D8A105B8101004D0
S1136967A80C31FE60D1DD06F6BF46EEEF05A80A96
S1136977BF46EEAF46EE44AB05DE07CFDFEE801031
S113698716D7AF46EE44A00FDC07CFDFEE7F101615
S1136997D7AF46EE340A00CEFB030004EFFE609F38
S11369A7DFEE1016D71016D720068EFA9F18ED7152
S11369B77BFA3607FF71A2CF2705B771A38F18EDAE
S11369C79EFA8EFA9F18ED717BFA71A2F522057172
S11369D7A38F18ED9EFA8EFA9F18ED717BFA71A2B8
S11369E7E5200571A38F18ED9EFA8EFA9F18ED71B5
S11369F77BFA71A2CF21050571A38F18ED9EFA8E3C
S1136A07D03165FB716BD08EFA9F18ED717BFA71EB
S1136A17A2CF1C05FE71A38F18ED9EFA8EFA9F185C
S1136A27ED717BFA71A28F2C05980371A38F18ED72
S1136A379EFA8EFA9F18ED717BFA71A28F2D059835
S1136A470271A38F18ED9EFA88039804F6BFA2EE8D
S1136A578804708802BFA0EE8EFA9F18ED717BFA46
S1136A6771A28F3205980171A38F18ED9EFA8EFAE1
S1136A779F18ED717BFA71A28F3305980071A38F6C
S1136A8718ED9EFA8801708800BFAAEE8EFA9F1847
S1136A97ED717BFA71A28F2E05980371A38F18ED00
S1136AA79EFA8EFA9F18ED717BFA71A28F2F0598C3
S1136AB70271A38F18ED9EFA88039804F6BFA6EE19
S1136AC78804708802BFA4EE8EFA9F18ED717BFAD2
S1136AD771A28F3405980171A38F18ED9EFA8EFA6F
S1136AE79F18ED717BFA71A28F3505980071A38FFA
S1136AF718ED9EFA8801708800BFACEEFEC3FB4117
S1136B0701118FAEC43179317A91DF06FE26FD106B
S1136B1706D71006D720169800C3C617B814410124
S1136B27118FAEC4F7312503EEB40088005002D6A6
S1136B37044EEDB80837612900B8101361D8B1B80D
S1136B470E1704400016A80804600014A961290060
S1136B5714C5C2A810CEFB01B802C3C6C5C2A80E8D
S1136B67CEFB0207B80488005002D6044EED160483
S1136B77200014A9612900B80CF6C1A80EC1A80801
S1136B8712A806FC922D001004B812F6C1A80EC173
S1136B97A80812A806FC452D00B80613B808100467
S1136BA7A80431FE6168DD0BA8126168DD05E6B84B
S1136BB70AEF03F6B80AA80A6168DD0EA80204FF03
S1136BC7FFB802DC05A804B1B80488005002D61245
S1136BD7048EED16A80261090078C0EE1016D7F6E8
S1136BE7C188025002D6044EED1204200014A9C134
S1136BF71304600014A914C5C217CEFB011613B8F9
S1136C070CC5C2F6CEFB0212A80C33031217FC45BF
S1136C172D001004B806AEF80407001631F503F684
S1136C27B80688005002D612A80678C0EE1016D708
S1136C372014AFD6ED2254EEB808AFD8ED61D8B121
S1136C472256EEB80AAFDAED22D6EDB810AFDCED76
S1136C5761D8B122D8EDB812A80A12A808FCD92D18
S1136C6700B80E13B80CAFDEEDF7FCF12D00C3C16D
S1136C77A81012A812FC962C00B81213B81010040E
S1136C87A81212A810FCD92D00C3C1A81012A8126B
S1136C97FC7C2B001004FC382D00B80013B802A8A4
S1136CA702BF42EEA800BF40EEA802147C80440055
S1136CB780A8001261F8440100DC07B80415B8067F
S1136CC7EF0CF61623B8041761D8B125B806A80641
S1136CD7BFE2EEA804BFE0EEA8027C80440080A8CF
S1136CE70061F8440080DC08F6B80230FF7FB80082
S1136CF7A8027C8044FF7FA80061F8440080DE0A74
S1136D0730FFFFB802300080B8004101F642E2EEDE
S1136D1711AF1AC461F842E0EEDC12F6BF0CEFBF04
S1136D27E2EEBFE0EEBF42EEBF40EEEF05A800BFC4
S1136D370CEFAF42EE31FE60D1DBE2EEEBE0EEDDCD
S1136D47204101134400001561F8114214C4DC0604
S1136D57711036EEEF04711836EE710836EE101422
S1136D67D74101134400001561F8114216C4DC062B
S1136D77710036EEEF04710836EE711836EE101412
S1136D87D7717BFACFE4EE1E8EFA9F18ED717BFA6A
S1136D973607FF71A2F50C0571A38F18ED9EFA8EC5
S1136DA7FA9F18ED717BFA71A2CF0405AA71A38F1C
S1136DB718ED9EFA8EFA9F18ED717BFA71A2CF0433
S1136DC7055571A38F18ED9EFA8EFA9F18ED717B06
S1136DD7FA71A2CF0405FF71A38F18ED9EFA8EFAFC
S1136DE79F18ED717BFA71A2F5040571A38F18ED55
S1136DF79EFA717AFAD72006C80000C80400C801B1
S1136E07008F36EE311503EE9201410111AFCEC466
S1136E1742D6EE61D311410111AFD0C442D4EE6121
S1136E27C305E6B802EF03F6B802A802616861F881
S1136E37EE61014101AFD6EE22D4EE1142CAC4611C
S1136E47D8EE8D00C80000EF7588005002D61241B5
S1136E570179C0EE22D4EE1142CAC4DC0E88003197
S1136E678E440800DE05E6B802EF03F6B802A8026E
S1136E776168DD0D8800318E0444211688046D98FD
S1136E870488005002D612410179C0EE22D4EE11D3
S1136E9742CAC4DC0E8800318E440800DC05E6B81B
S1136EA702EF03F6B802A8026168DD0D8800318E8F
S1136EB70444211688016D980188008198004101D6
S1136EC7118F66C4318E128800318E4361D8EE78F3
S1136ED7FFD5EBEEDD60C80000EF4B8800318E4430
S1136EE70800DE528800730944215FEBEED1DD31DF
S1136EF788005002D612410179C0EE22D4EE114225
S1136F07CCC4DE1D880073094421318E1230FFFF83
S1136F1723128FEBEE318E615B08615A08609FEB99
S1136F27EE88008198004101118F66C4318E128862
S1136F3700318E43DCA5D5ECEEDD67C80008EF42CF
S1136F478800730944215FECEED1DD3188005002DB
S1136F57D612410179C0EE22D4EE1142CCC4DE1D13
S1136F67880073094421318E1230FFFF23128FECFE
S1136F77EE318E615B08615A08609FECEE880081F0
S1136F8798004101118F66C4318E128800318E43F7
S1136F97DCAEEF0EF5EBEEF5ECEEEF06F5EBEEF50A
S1136FA7ECEE88046FEBEE9FEBEE88016FECEE9F3F
S1136FB7ECEE8FEBEE9F4AEE8FECEE318E31ED3136
S1136FC7EE609F4BEE8EFA9F18ED717BFA3607FF42
S1136FD771A2F5030571A38F18ED9EFA8EFA9F1817
S1136FE7ED717BFA71A28FEBEE9F4C0571A38F189D
S1136FF7ED9EFA8EFA9F18ED717BFA71A28FECEE73
S1137007318E31ED31EE609F4D0571A38F18ED9EE2
S1137017FA1006D720048E50980088009F5AEF8EE6
S1137027513139317A91DF43716AE471285EEF7126
S11370370864EF8E5131530A8E51313305E6B80295
S1137047EF03F6B802A8026168DD1BF55CEF880060
S11370577F5CEF73096C219F5CEFE52AEF36300202
S113706771B371D2EF08FED301EF03FECE0136B43C
S11370770171928FB0013169317A91DDF636B2012F
S11370877192F525EF712828EF710028EF71182800
S1137097EFF526EF713828EF1004D78E51315321BD
S11370A78E509F30EF8F30EF7F5CEF73096C219F19
S11370B75CEFFCD57500D1DD04FE3902D7FE7C01F7
S11370C7D7FE7801D720048E50980288027F5CEFA0
S11370D773096C219F5CEF8E513149317A91DF4AF4
S11370E78E513139317A91DF0A8E51315305E6B821
S11370F700EF03F6B800A8006168DD28FC147600E9
S1137107E92BEF0932EF7F5CEF73096C219F5CEF8A
S113711736300271B2E92BEF0932EF9E50CF2AEFD6
S1137127041004D7FE15011004D7402BEF01DD101E
S11371378E509F2BEF8F2BEF9F31EFB031EFEF087E
S1137147E92BEF8E501832EFB02BEFCF2AEF05FE65
S1137157A3011004D720048E50980288027F5CEFA5
S113716773096C219F5CEF8E513139317A91DF0AB3
S11371778E51315305E6B800EF03F6B800A8006155
S113718768DD0E8E513149317A91DF05E6B800EF9B
S113719703F6B800A8006168DD28FC147600E92B23
S11371A7EF0932EF7F5CEF73096C219F5CEF363098
S11371B70271B2E92BEF0932EF9E50CF2AEF041088
S11371C704D7FE77001004D78E5131535D402BEF5F
S11371D7FFDD44B02BEF402BEFFFDF158E5131233A
S11371E70A36300271B371A371D2D78F5CEF9E5008
S11371F7D78E513159317A91DF19E92BEF0932EFE3
S11372077F5CEF73096C219F5CEFE92BEF0932EF89
S11372179E50D7FE1800D78E5131230A363002719B
S1137227B371A371D2D7FE0500D7FE0100D7CF2AC9
S1137237EF08713029EF36300271E2D73630027128
S1137247A371D2CF2AEF08713029EFD78E5131536A
S11372575D402BEFFFDD29E92BEF8E501832EFE964
S11372672BEF0932EF7F5CEF73096C219F5CEFB062
S11372772BEF402BEFFF61F8711029EFFE7600D753
S11372878F29EF3123248F5CEF758E50318E126571
S1137297318E43DF05FE5D00EF0B713029EF363089
S11372A70271A371D2712029EFD7FE8FFFD771180E
S11372B729EFFE79FFD7C78E513133348E509800AA
S11372C78800318E128F2BEF318E43DF1E88007FAB
S11372D75CEF73096C219F5CEFB02BEF8F2BEF9F53
S11372E731EFCF2AEF05FE0C00C6D7FE4EFFC6D7F7
S11372F7FE49FFC6D736300271A271D2D7F52AEFFD
S1137307CF2BEFFF711829EF713829EF36B40171CC
S1137317928E26318E086C0308609E26FE3200D7B3
S11373278F28EF3159317A91DF0A712828EF7108D4
S113733728EFEF128F28EF3149317A91DF12713834
S113734728EF711828EF717BFAFEB1FF717AFAD72B
S1137357D7CF5AEFA5F55BEF36F00071C23630028E
S113736771F3713AE6713BE2713BEA713BEE8D06CC
S1137377318EF1085CFC08609D068E26318E086C00
S11373870308609E2636310271B3CF320226CF330B
S1137397022BF5310241011140ACC4FFDD0B410161
S11373A7118FACC49F3402EF04CF340216CF3002DE
S11373B714711B52710A52713BE2713BE63630027B
S11373C771F271E28E26318EF1085CFC08609E260C
S11373D7714B38714A39716BE8716BEC716BE07101
S11373E76BE4D7FFFFD7200E300F00B80C30000531
S11373F7B80A8F30EF318E440000DD4804B0FF44F3
S11374070000DD47B144000061F8EE850004FAFF8F
S113741744000061F8EEEC00B144000061F8EEB8F6
S11374270004FEFF44000061F8EEED0004FDFF4494
S1137437000061F8EE070144010061F8EC6575008E
S1137447ECA77500FCB27600100ED78F34EF9FBA05
S1137457EE8F33EF9FBBEE8F32EF9FBCEE8F33EF90
S1137467318E12A80A03B806A80C61D8A1B8088EF1
S1137477FA9F48ED717BFA3607FF71A288089EFDD3
S1137487A806148FBCEE119971A38F48ED9EFA10CC
S11374970ED78F34EF9FBDEE8F33EF9FBEEE8F3243
S11374A7EF9FBFEE8F33EF318E12A80A03B806A8F9
S11374B70C61D8A1B8088EFA9F48ED717BFA36079C
S11374C7FF71A288089EFDA8061411899FB9EE7161
S11374D7A38F48ED9EFA100ED78FFBED3179317AE1
S11374E79161E8ECD275008F33EF9FF8ED8F32EF9F
S11374F79FF9ED40F9ED0161E8ECD275007110FBDD
S1137507ED100ED78FFBED3179317A9161E8ECD22A
S11375177500FCB37800100ED74032EF23DF0B4021
S113752733EF45DF05E6B800EF03F6B800A80061BE
S11375376861F8ECD27500714029EF100ED740321C
S1137547EF56DF0B4033EF78DF05E6B800EF03F6BD
S1137557B800A800616861F8EC657500FFFF403268
S1137567EF12DF0B4033EF34DF05E6B800EF03F625
S1137577B800A8006168DD07FC6F2F00100ED74024
S113758732EFABDF0B4033EFCDDF05E6B800EF0397
S1137597F6B800A8006168DD32FC9F2F00100ED7F3
S11375A7AF2CEFB8048F31EF9802EF168802318FB2
S11375B712A804144932EF99A804A1B804880291C7
S11375C798028802318F44FFFFDFE1100ED7C78F7F
S11375D730EF318E448000DE168F30EF5006D6042C
S11375E76E2212340600302AEFFC0C2B00EF04CF76
S11375F72AEF08402AEF08DD0B8F2BEF9F31EFC8E6
S11376070001EF03C8000088009801C6D72006C808
S11376170100AF2CEFB8028F2EEF98048F30EF31B3
S11376278E44570061F8FE9F018801318E6168DF3F
S113763777402AEF068F2BEFDF3F738F2BEF18323C
S1137647EF8F2BEF318EB1609800EF2488049EFDF5
S1137657A802148800318F1211894832EFA802A1B9
S1137667126098021398038804980488009198007C
S11376778800318F3175D5EF2F9800EF2488049E49
S1137687FDA802148800318F1211894832EFA8022D
S1137697A1126098021398038804980488009198AB
S11376A7008800318F3175D51006D7C78F33EF9F08
S11376B738EE8F32EF9F39EE8F5EEF3179317A9161
S11376C7AF38EEDF11448967DF06FC886D00EF0FE2
S11376D771085EEFEF0944452361F871005EEF8F8F
S11376E75EEF3149317A91DF0B4039EEFFDF05E672
S11376F7B800EF03F6B800A8006168DD278F38EEFD
S1137707318E31ED31EE609F60EE8EFA9F48ED7158
S11377177BFA3607FF71A28F60EE9F0C0571A38F6A
S113772748ED9EFA4039EE1261E8EE99008F38EE83
S1137737318E04CCFF440000DD2BB1440000DD2B67
S1137747B1440000DD48B1440000DD48B144000005
S1137757DD52B1440000DD5CB1440000DD5C44014E
S113776700DD5DEF6171205EEFC6D771305EEFF526
S113777760EE8EFA9F48ED717BFA3607FF71A28F90
S113778760EE9F0C0571A38F48ED9EFAC6D771383A
S11377975EEFC6D78FFBED3179317A91DF287120FF
S11377A7FBEDC6D78FFBED3179317A91DF18713054
S11377B7FBEDC6D771605EEFC6D771705EEFC6D7B3
S11377C77100F0EDC6D7C6D78FF8ED318E440E00A1
S11377D7DE42440C00DF07AF90EDBF60EFD740F8FF
S11377E7ED0DDF07AFB0EDBF60EFD740F8ED0ADF6F
S11377F707AFD2EDBF60EFD740F8ED0BDF07AFD48B
S1137807EDBF60EFD78FF8ED5002D6048EED14A9C3
S1137817BF60EFD7440F00DF07AFDEEDBF60EFD7E0
S113782740F8ED10DF07AFE2EDBF60EFD78FF8ED5B
S1137837318E442A00DE0F8FF8ED5002D6046EED28
S113784714A9BF60EFD740F8ED2CDF07AFE8EDBF11
S113785760EFD740F8ED2DDF07AFEAEDBF60EFD754
S113786730FFFFBF60EFD72008B806440000DD05EE
S1137877C8000FEF03C80000B8028800739804A873
S11378870214633260EF5002FCE72E003690007159
S113789782510AFCEB2F0034A200320018304EED5F
S11378A7FC0C2B0036900071831008D7C78F33EF79
S11378B79F60EF8F32EF9F61EF8FF8ED318E440CAD
S11378C700DE29440A00DF08308418FE99FFC6D772
S11378D740F8ED0BDF08308618FE8BFFC6D78FF80C
S11378E7ED5002D6044018FE7DFFC6D7440C00DFD6
S11378F727C80000EF1088005002D6044018FE661F
S1137907FF88008198004101118F66C4318E128867
S113791700318E43DCE0EF7B40F8ED0DDF27C80034
S113792700EF1088005002D6046018FE39FF880063
S11379378198004101118F66C4318E128800318EFF
S113794743DCE0EF4E40F8ED0FDF08309018FE16E9
S1137957FFC6D740F8ED10DF08309418FE08FFC6BD
S1137967D78FF8ED318E442A00DE0E8FF8ED5002E2
S1137977D6042018FEF0FEC6D740F8ED2CDF0630FB
S11379879A18FEE2FE40F8ED2DDF08309C18FED66B
S1137997FEC6D7C6D716C80300AEF82761D3393158
S11379A75E12F643DD27BBBC02BC04BC06BC08BCA4
S11379B70ABC0CBC0EBC10BC12BC14BC16BC18BC54
S11379C71ABC1CBC1E3704200037B3EFD6AEF847E9
S11379D7DD06F6BBA7A7EFF5D72004410111AF00D9
S11379E7C444FFFFDF06C80000EE7104410111AF74
S11379F702C444FFFFDF06C80000EE600441011122
S1137A07AF04C444FFFFDF06C80000EE4F04410182
S1137A1711AF06C444FFFFDF06C80000EE3E044171
S1137A270111AF08C444FFFFDF06C80000EE2D04B0
S1137A37410111AF0AC444FFFFDF06C80000EE1C72
S1137A4704410111AF0CC444FFFFDF06C80000EE78
S1137A570B04410111AF0EC444FFFFDF06C8000049
S1137A67EEFA03410111AF10C444FFFFDF06C8005B
S1137A7700EEE903410111AF12C444FFFFDF06C85A
S1137A870000EED803410111AF14C444FFFFDF0621
S1137A97C80000EEC703410111AF16C444FFFFDF5E
S1137AA706C80000EEB603410111AF18C444FFFF36
S1137AB7DF06C80000EEA503410111AF1AC444FF55
S1137AC7FFDF06C80000EE94034101118F1CC43187
S1137AD78F44FF00DF06C80000EE81034101118FC8
S1137AE71DC4318F44FF00DF06C80000EE6E03415A
S1137AF701118F1EC4318F44FF00DF06C80000EE5A
S1137B075B034101118F20C4318F44FF00DF06C896
S1137B170000EE48034101118F21C4318F44FF0057
S1137B27DF06C80000EE35034101118F22C4318FEF
S1137B3744FF00DF06C80000EE2203410111402480
S1137B47C4FFDF06C80000EE13034101114025C43A
S1137B57FFDF06C80000EE0403C80100EF1D88011B
S1137B675002D60426C441011411A944FFFFDF06BD
S1137B77C80000EEE702880181980188014C08DCFF
S1137B87DDC80100EF1D88015002D60436C4410147
S1137B971411A944FFFFDF06C80000EEBF028801E5
S1137BA781980188014C08DCDDC80100EF1D8801BC
S1137BB75002D60446C441011411A944FFFFDF064D
